:10030A0044085806C001FFFF50014C860060FC1FDC
:10031A00440054FD5545FE475445F4FD4400000091
:10032A00808070600018FF07200810300081C080AC
:10033A0038400040FF270010080C1003600000003E
:10034A0000440244F22492249214FE0C920492FF76
:10035A009204FE0C92149224F224024400440000F7
:10036A008000820082008200820082408280E27FD6
:10037A00A20092008A0086008200800080000000AD
:10038A0044085806C001FFFF50014C860060FC1F5C
:10039A00440054FD5545FE475445F4FD4400000011
:1003AA00808070600018FF07200810300081C0802C
:1003BA0038400040FF270010080C100360000000BE
:1003CA0000440244F22492249214FE0C920492FFF6
:1003DA009204FE0C92149224F22402440044000077
:1003EA008000820082008200820082408280E27F56
:1003FA00A20092008A00860082008000800000002D
:10040A0044085806C001FFFF50014C860060FC1FDB
:10041A00440054FD5545FE475445F4FD4400000090
:10042A00808070600018FF07200810300081C080AB
:10043A0038400040FF270010080C1003600000003D
:10044A0000440244F22492249214FE0C920492FF75
:10045A009204FE0C92149224F224024400440000F6
:10046A008000820082008200820082408280E27FD5
:10047A00A20092008A0086008200800080000000AC
:10048A0044085806C001FFFF50014C860060FC1F5B
:10049A00440054FD5545FE475445F4FD4400000010
:1004AA00808070600018FF07200810300081C0802B
:1004BA0038400040FF270010080C100360000000BD
:1004CA0000440244F22492249214FE0C920492FFF5
:1004DA009204FE0C92149224F22402440044000076
:1004EA008000820082008200820082408280E27F55
:1004FA00A20092008A00860082008000800000002C
:10050A0044085806C001FFFF50014C860060FC1FDA
:10051A00440054FD5545FE475445F4FD440000008F
:10052A00808070600018FF07200810300081C080AA
:10053A0038400040FF270010080C1003600000003C
:10054A0000440244F22492249214FE0C920492FF74
:10055A009204FE0C92149224F224024400440000F5
:10056A008000820082008200820082408280E27FD4
:10057A00A20092008A0086008200800080000000AB
:10058A0044085806C001FFFF50014C860060FC1F5A
:10059A00440054FD5545FE475445F4FD440000000F
:1005AA00808070600018FF07200810300081C0802A
:1005BA0038400040FF270010080C100360000000BC
:1005CA0000440244F22492249214FE0C920492FFF4
:1005DA009204FE0C92149224F22402440044000075
:1005EA008000820082008200820082408280E27F54
:1005FA00A20092008A00860082008000800000002B
:100E27004100C0004100C1004200C200005B00C495
:100E3700FF000000FF000000FFFFFF00FF00FF00B2
:0B0E470000FF8B00FF00000000000017
:100B4F00E49000DFF0120EC17F147E00120E977D2D
:100B5F00027F01120D5C7D047F01120D077D017F65
:100B6F0001120D07C291120EF3E4FD7F1E120BD17D
:100B7F007D017F1E120BD17D027F1E120BD17D03D3
:100B8F007F1E120BD17D047F1E120BD17D057F1EA0
:100B9F00120BD17D067F1E120BD1120C3B120E537E
:100BAF003094FD7BFF7A03790A120DB1E49000C1F6
:100BBF00F020B209120EE530B2FD120CA3120CA3F5
:020BCF0080EFB5
:100CA3002094607F147E00120E972094569000C10A
:100CB300E004F0E075F00684AFF0EFF01460101478
:100CC300601514601A14601F146024240580287BA7
:100CD300FF7A03798A80267BFF7A04790A801E7B58
:100CE300FF7A04798A80167BFF7A05790A800E7B66
:100CF300FF7A05798A80067BFF7A03790A120DB1A0
:040D03003094FD2209
:1008FE0074FF9000E0F0A3F0E4A3F0A3F07F50FEAD
:10090E00120E97E49000E2F09000E2E0FDC39440F6
:10091E007480948040030209F0ED25E02401F582F5
:10092E00E43400F583E0FEED25E02400F582E434A6
:10093E0000F583E07C002400FFEC3E9000E0F0A385
:10094E00EFF0E49000E3F09000E3E0FBC39410744A
:10095E0080948040030209E49000E1E030E04FA370
:10096E00E07F00FE7C007D0F1202A7EB7C002FFBC8
:10097E00EC3EFA9000C2E0FEA3E0FF7D501202951D
:10098E00EF2BFFEE3AFE7803EFCEC313CE13D8F95A
:10099E00FF12060A9000E3E0FFC3740F9FFF900062
:1009AE00DCE0FDA3E0FBA3E09000E7F080119000F7
:1009BE00E3E0FFC3740F9FFFE49000E7F0FBFD122E
:1009CE000DEC9000E0E0C313F0A3E013F09000E311
:1009DE00E004F0020955120F059000E2E004F00267
:1009EE000916E49000E2F09000E2E0FFC394107468
:1009FE008094805012E49000E7F0FBFD120DEC9015
:100A0E0000E2E004F080E0120F059000C3E004F075
:080A1E0070069000C2E004F034
:010A260022AD
:0E0EE5009000C1E024FA500280001208FE22A4
:0B0DB1009000E0EBF0A3EAF0A3E9F0F3
:100DBC00E4FFEFC394A07480948050239000E0E093
:100DCC00FBA3E0FAA3E0F98F82758300120268FEA0
:0F0DDC0074002FF582E43400F583EEF00F80D31E
:010DEB0022E5
:0B0EF300120E53120F057F1E0207CAEB
:030F0500020EFEDB
:100E5300E49000E0F09000E0E0D3940F748094807D
:100E63005017E49000E7F0FBFD7F0F120DEC120E1C
:090E7300FE9000E0E004F080DCD8
:010E7C002253
:100C3B00E49000E0F0A3F0F0C3748094855058E486
:100C4B009000E0F09000E0E0FFD3940F748094806C
:100C5B005030EF7F00FE7C007D0F1202A7A3E02F28
:100C6B00FF12060A9000E0E0FF9000DCE0FDA3E03D
:100C7B00FBA3E09000E7F0120DEC9000E0E004F035
:100C8B0080C27F0A7E00120E9730940B30B2089010
:070C9B0000E1E004F080A17C
:010CA200222F
:080BD1009000E0EFF0A3EDF04D
:100BD900E4A3F0F09000E2E0FFD3940F74809480D6
:100BE900504F9000E1E0FE75F003A424C4F582E4BF
:100BF9003400F583E0FDEE75F003A424C5F582E425
:100C09003400F583E0FBEE75F003A424C6F582E415
:100C19003400F583E09000E7F0120DEC120F059017
:100C290000E0E0FF7E00120E979000E2E004F08001
:010C3900A317
:010C3A002297
:1007CA00E49000E0F09000C0EFF0E49000E0F090D8
:1007DA0000E0E0FFD394077480948040030208FD90
:1007EA00EF75F003A424C5F582E43400F583E0FC38
:1007FA00E41201B3E4FBFA7980784312010CECC0ED
:10080A00E0EDC0E0EEC0E0EFC0E09000C0E0FCE444
:10081A001201B3D0E0FBD0E0FAD0E0F9D0E0F81250
:10082A0000031201E79000E0E0FE75F003A424C57E
:10083A00F582E43400F583EFF0EE75F003A424C4E6
:10084A00F582E43400F583E0FCE41201B3E4FBFA38
:10085A007980784312010CECC0E0EDC0E0EEC0E014
:10086A00EFC0E09000C0E0FCE41201B3D0E0FBD09E
:10087A00E0FAD0E0F9D0E0F81200031201E79000A4
:10088A00E0E0FE75F003A424C4F582E43400F583A5
:10089A00EFF0EE75F003A424C6F582E43400F58384
:1008AA00E0FCE41201B3E4FBFA7980784312010C0C
:1008BA00ECC0E0EDC0E0EEC0E0EFC0E09000C0E0C8
:1008CA00FCE41201B3D0E0FBD0E0FAD0E0F9D0E0CA
:1008DA00F81200031201E79000E0E075F003A42487
:1008EA00C6F582E43400F583EFF09000E0E004F00E
:0308FA000207D919
:0108FD0022D8
:0B0DEC009000E4EFF0A3EDF0A3EBF0AB
:100DF700E49000E8F0F09000E4E0FF9000E8E0C342
:100E07009F500FE4FBFDFF120A279000E8E004F073
:100E170080E49000E5E0FFA3E0FDA3E0FB020A27E2
:10060A009000E4EFF07E00C3945574809480400318
:10061A000206B37C007D03120295EEFCEFFDEC129C
:10062A0001AEE4FBFA797F784312010CECC0E0EDED
:10063A00C0E0EEC0E0EFC0E09000C0E0FCE41201D0
:10064A00B3D0E0FBD0E0FAD0E0F9D0E0F812000332
:10065A001201E79000DDEFF09000E4E075F003A4EA
:10066A00FFC374FF9FFDE495F0FC1201AEE4FBFAB0
:10067A00797F784312010CECC0E0EDC0E0EEC0E0F7
:10068A00EFC0E09000C0E0FCE41201B3D0E0FBD080
:10069A00E0FAD0E0F9D0E0F81200031201E7900086
:1006AA00DCEFF0E49000DEF0229000E4E0C394AACC
:1006BA00748094805066E024ABF0E075F003A4FFE8
:1006CA00C374FF9FFDE495F0FC1201AEE4FBFA79D6
:1006DA007F784312010CECC0E0EDC0E0EEC0E0EF21
:1006EA00C0E09000C0E0FCE41201B3D0E0FBD0E02F
:1006FA00FAD0E0F9D0E0F81200031201E79000DD29
:10070A00EFF0E49000DCF09000E4E0FF7E007C0073
:10071A007D03120295EEFCEFFDEC806A9000E4E0A6
:10072A002456F0E49000DDF09000E4E0FF7E007CC7
:10073A00007D03120295EEFCEFFDEC1201AEE4FB24
:10074A00FA797F784312010CECC0E0EDC0E0EEC00C
:10075A00E0EFC0E09000C0E0FCE41201B3D0E0FB9F
:10076A00D0E0FAD0E0F9D0E0F81200031201E790E5
:10077A0000DCEFF09000E4E075F003A4FFC374FF1F
:10078A009FFDE495F0FC1201AEE4FBFA797F784311
:10079A0012010CECC0E0EDC0E0EEC0E0EFC0E0906A
:1007AA0000C0E0FCE41201B3D0E0FBD0E0FAD0E0F4
:1007BA00F9D0E0F81200031201E79000DEEFF02210
:0B0A27009000E9EFF0A3EDF0A3EBF06E
:100A3200E4A3F09000ECE0C3940874809480501F0B
:100A42009000E9E030E705120EAE8003120ED3905B
:100A520000E9E0FF25E0F09000ECE004F080D490A3
:100A620000EC7408F09000ECE0C394107480948061
:100A7200501F9000EAE030E705120EAE8003120E1E
:100A8200D39000EAE0FF25E0F09000ECE004F08073
:100A9200D49000EC7410F09000ECE0C394187480D1
:100AA2009480501C9000EBE030E705120EAE8003FC
:100AB200120ED39000EBE025E0F0A3E004F080D723
:010AC2002211
:100EC10075A15575A1AAE5B954F84406F5B9E4F53B
:020ED100A1225C
:100E7D00EF4E601505A105A105A105A105A105A1CF
:0A0E8D0005A1EF1F70EA1E80E722A6
:100E9700EFFDEEFCED4C600E7FE87E03120E7DED5C
:070EA7001D70F11C80EE221A
:100D0700EF14601B14602914603924037046EDF852
:100D17007401088002C333D8FCF45292529322ED37
:100D2700F87401088002C333D8FCFFF45292802183
:100D3700EDF87401088002C333D8FCFF4292EFF448
:100D4700529322EDF87401088002C333D8FCFF42A6
:050D570092EF4293221F
:100D5C00EF14601B14602914603924037046EDF8FD
:100D6C007401088002C333D8FCF45296529722EDDA
:100D7C00F87401088002C333D8FCFFF4529680212A
:100D8C00EDF87401088002C333D8FCFF4296EFF4EF
:100D9C00529722EDF87401088002C333D8FCFF424D
:050DAC0096EF429722C2
:100ED300D29100000000000000C291000000000059
:020EE3000022EB
:100EAE00D29100000000000000000000000000C20F
:030EBE009100227E
:070EFE007F237E00020E7D40
:10000300EC4D6011E8497017ED33EC3304600DE4F7
:10001300FCFFFEFD22E933E8330470F802025312B9
:10002300021E58046009E4CC2481500628500902BA
:10003300025D28400302025AC0E0EB4A7044B980D3
:1000430006D0E0FB020249EF4E701CBD8008EBFFB7
:10005300EAFEE9FD80EBE98DF0A4FEE5F00200EC99
:10006300E9CDF9EAFEEBFFEF89F0A4FCE5F0CE89D8
:10007300F0A42EFFE435F0CD89F0A42DFEE435F095
:100083008067EF4E7005BD80D780C3EF8BF0A4ACC3
:10009300F0EE8BF0A42CFCE435F0F8EF8AF0A42CFE
:1000A300E5F038FCE433CB8DF0A42CFCE5F03BF811
:1000B300EE8AF0A42CFCE5F038F8E433CF89F0A401
:1000C3002CFCE5F038CF3400CE89F0A42FFFE5F007
:1000D3003EFEE433C98DF0A42EFEE5F039CD8AF05F
:1000E300A42FFFE5F03EFEE43DFD33D0E0FB5007D7
:1000F3000BBB000F02025DEC2CFCEF33FFEE33FE73
:06010300ED33FD020235A0
:1001090002025DEC5D046005E859047003020253C4
:1001190012021E580460F6EC4860F2EC7004FDFE11
:10012900FF22C860DB2481C85009C39860025006C9
:1001390002025A9850CAF582E9294B4A7005AB82E6
:1001490002024975F0007C1A7880C3EF9BEE9AEDA4
:1001590099400DC3EF9BFFEE9AFEED99FDE842F041
:10016900DC23ACF0D0E0FFD0E0FED0E0FDAB822094
:10017900E7101BEB60BAEC2CFCEF33FFEE33FEED1E
:1001890033FD020235E803F830E705C0F075F000E9
:10019900EF2FFFEE33FEED33FD40B830E7C280AA02
:1001A90075F020800E75F010800575F0087D007ED1
:1001B900007F003392D530D5031202FCEC33401096
:1001C900EF33FFEE33FEED33FDEC33FCD5F0ED22DA
:0E01D900E5F0247EA2D513CC92E7CDCEFF2216
:1001E700EDD2E7CD33EC3392D524814006E4FFFE10
:1001F700FDFC22FCE4CFCECDCC24E0501174FF806F
:10020700EDC3CC13CCCD13CDCE13CECF13CF04700B
:07021700F030D5DE0202FC0D
:10021E00E9D2E7C933E833F892D5EDD2E7CD33EC26
:07022E0033FC5002B2D5229F
:10023500EC30E7100FBF000C0EBE00080DBD00042A
:100245000BEB6014A2D5EB13FCED92E7FD2274FFD6
:10025500FCFDFEFF22E480F8A2D574FF13FC7D802F
:03026500E480EF43
:03000000020AC32E
:0C0AC300787FE4F6D8FD758107020B0A6D
:10026800BB010CE58229F582E5833AF583E022504B
:1002780006E92582F8E622BBFE06E92582F8E22295
:0D028800E58229F582E5833AF583E49322AF
:10029500EF8DF0A4A8F0CF8CF0A428CE8DF0A42E7D
:0202A500FE2237
:1002A700BC000BBE0029EF8DF084FFADF022E4CC3B
:1002B700F875F008EF2FFFEE33FEEC33FCEE9DEC04
:1002C700984005FCEE9DFE0FD5F0E9E4CEFD22ED4A
:1002D700F8F5F0EE8420D21CFEADF075F008EF2F94
:1002E700FFED33FD4007985006D5F0F222C398FD85
:0502F7000FD5F0EA2222
:0E02FC00C3E49FFFE49EFEE49DFDE49CFC2213
:100ACF00020B4FE493A3F8E493A34003F68001F2E3
:100ADF0008DFF48029E493A3F85407240CC8C33328
:100AEF00C4540F4420C8834004F456800146F6DFF7
:100AFF00E4800B0102040810204080900E27E47E52
:100B0F00019360BCA3FF543F30E509541FFEE493EB
:100B1F00A360010ECF54C025E060A840B8E493A3B2
:100B2F00FAE493A3F8E493A3C8C582C8CAC583CADD
:100B3F00F0A3C8C582C8CAC583CADFE9DEE780BE95
:010E5200009F
:00000001FF
